{
  "contractName": "Videostream",
  "abi": [
    {
      "constant": true,
      "inputs": [],
      "name": "videos",
      "outputs": [
        {
          "internalType": "uint256",
          "name": "",
          "type": "uint256"
        }
      ],
      "payable": false,
      "stateMutability": "view",
      "type": "function"
    },
    {
      "constant": false,
      "inputs": [
        {
          "internalType": "string",
          "name": "video_hash",
          "type": "string"
        },
        {
          "internalType": "string",
          "name": "title",
          "type": "string"
        }
      ],
      "name": "videouploading",
      "outputs": [],
      "payable": false,
      "stateMutability": "nonpayable",
      "type": "function"
    }
  ],
  "bytecode": "0x60806040526000805534801561001457600080fd5b5061038a806100246000396000f3fe608060405234801561001057600080fd5b50600436106100365760003560e01c80638641c5c31461003b578063ae2246331461018d575b600080fd5b61018b6004803603604081101561005157600080fd5b810190808035906020019064010000000081111561006e57600080fd5b82018360208201111561008057600080fd5b803590602001918460018302840111640100000000831117156100a257600080fd5b91908080601f016020809104026020016040519081016040528093929190818152602001838380828437600081840152601f19601f8201169050808301925050505050505091929192908035906020019064010000000081111561010557600080fd5b82018360208201111561011757600080fd5b8035906020019184600183028401116401000000008311171561013957600080fd5b91908080601f016020809104026020016040519081016040528093929190818152602001838380828437600081840152601f19601f8201169050808301925050505050505091929192905050506101ab565b005b6101956102aa565b6040518082815260200191505060405180910390f35b6040518060a001604052808281526020013373ffffffffffffffffffffffffffffffffffffffff1681526020018381526020016000815260200160008152506001600080548152602001908152602001600020600082015181600001908051906020019061021a9291906102b0565b5060208201518160010160006101000a81548173ffffffffffffffffffffffffffffffffffffffff021916908373ffffffffffffffffffffffffffffffffffffffff160217905550604082015181600201908051906020019061027e9291906102b0565b506060820151816003015560808201518160040155905050600160008082825401925050819055505050565b60005481565b828054600181600116156101000203166002900490600052602060002090601f016020900481019282601f106102f157805160ff191683800117855561031f565b8280016001018555821561031f579182015b8281111561031e578251825591602001919060010190610303565b5b50905061032c9190610330565b5090565b61035291905b8082111561034e576000816000905550600101610336565b5090565b9056fea265627a7a72315820fc48145d2a4f76facfa72f700958d99a9211441bd80a671c87ec6f8fd096b2f164736f6c63430005100032",
  "source": "pragma solidity >=0.4.21 <0.7.0;\r\n\r\ncontract Videostream {\r\n    uint public videos=0;\r\n    struct Video{\r\n        string title;\r\n        address author_add;\r\n        string hash;\r\n        uint likes;\r\n        uint dislikes;\r\n    }\r\n    mapping(uint=>Video) video_lists;\r\n    function videouploading(string memory video_hash,string memory title) public {\r\n        video_lists[videos]= Video(title,msg.sender,video_hash,0,0);\r\n        videos+=1;\r\n\r\n    }\r\n}",
  "sourcePath": "C:\\Users\\HP\\Desktop\\VideoPrism\\contracts\\Videostream.sol",
  "compiler": {
    "name": "solc",
    "version": "0.5.16+commit.9c3226ce.Emscripten.clang"
  },
  "schemaVersion": "3.4.3",
  "updatedAt": "2021-11-20T19:17:33.409Z",
  "networkType": "ethereum",
  "devdoc": {
    "methods": {}
  },
  "userdoc": {
    "methods": {}
  }
}